:0911AB0030303000000008090496
:10117C000F213F065B4F666D7D077F6F3F7337799D
:01118C005012
:10118E00E4FEEEC39F5009E4FD0DBDA0FC0E80F2FF
:01119E00222E
:10110200E4FEEFC39430400EEFD39439500874F1EB
:101112002FF8E6FE8021BF4F04AE2B801ABF500489
:10112200AE2C8013BF4E04AE2D800CBF4504AE2EF4
:101132008005BF5202AE2FEE13B39293EEA2E1B33B
:101142009280A2E2B39295A2E3B39283A2E4B39215
:0D11520081A2E5B39292A2E6B39297D284F7
:01115F00226D
:100AA80078087C007D007BFF7A1179AB7E007F039C
:100AB8001208D0780B7C007D007BFF7A1179AE7E1E
:100AC800007F031208D0780E7C007D007BFF7A112E
:100AD80079B17E007F031208D0E4F511F512F51301
:100AE800C201F51453B1A443B25B53B34043B4BF3E
:100AF80043B18053B27F75F68075E80275E101D283
:070B080086C294C291C29065
:100B0F00E4F51743E840E5E830E7FB53E87FAFC370
:100B1F00EF75F004A4FFE5C2C413135403FDEF4DAA
:100B2F0085F015F516C39485E51594004010D3E5AF
:100B3F001694C2E515940050057517018034C3E56E
:100B4F00169429E51594014010D3E5169466E51522
:100B5F00940150057517028019C3E51694E1E51548
:100B6F009401400ED3E516941EE5159402500375BB
:100B7F001703E517651370540512E512C39404505B
:100B8F0003020C3CE5177003020C3C640260030285
:100B9F000C3CE512948C5003020C3CE50BB50E197E
:100BAF00E50CB50F14E50DB5100FD201C28675080F
:100BBF004F750950750A4E800BC2017508457509AE
:100BCF0052750A527514C8E4F5128061E512C39488
:100BDF00044054E5129428504EE513604AB4010EB8
:100BEF00740B2511F8E6D39400402C168029E513D9
:100BFF00B4030E740B2511F8E6C39409501906803F
:100C0F0016E513B40211E5112401FFE433FE7C0055
:100C1F007D031208F68D11740B2511F8E62430FFB1
:100C2F0074082511F8A607E4F512851713E514D3F8
:100C3F009400401CD51419E50B2430F508E50C245D
:100C4F0030F509E50D2430F50A300104D286C201D2
:100C5F00E4F518E518C394054003020B0FAF081213
:100C6F001102D294C291C2907F0512118EC294AF1D
:100C7F0009121102D291C294C2907F0512118EC235
:100C8F0091AF0A121102D290C294C2917F05121134
:070C9F008EC290051880BC15
:0300000002107675
:0C107600787FE4F6D8FD75815A0210BDA9
:0411B4008F828E8315
:0311B800E493FFBE
:0111BB002211
:0B119F00EF448075C7AA75C755F59F87
:0111AA002222
:080F1A008F4C8E4B8D4A8C496F
:100F2200538EF75389F04389017B407A42790F78D7
:100F320000AF4CAE4BAD4AAC491209D6A804A90584
:100F4200AA06AB07AE4FAF50E4FCFD12094BE47B9F
:100F52000CFAF9F81209D6C374FF9FFF74FF9EE4DE
:100F62009DE49CE48F517B407A42790FF8AF4CAEFE
:100F72004BAD4AAC491209D6A804A905AA06AB078B
:100F8200AE4FAF50E4FCFD12094BE47B0CFAF9F8CA
:100F92001209D6C374FF9FFF74FF9EFEE49DFDE419
:100FA2009CFC7808120A68E54E454D601885518A06
:100FB2008F8CD28C308DFDC28DC28CE54E154E7059
:050FC20002154D80E264
:010FC7002207
:080FC8008F558E548D538C529D
:100FD000538EEF53890F4389107B407A42790F7803
:100FE00000AF55AE54AD53AC521209D6A804A905B2
:100FF000AA06AB07AE58AF59E4FCFD12094BE47BDF
:101000000CFAF9F81209D6C374FF9FFF74FF9EE42F
:101010009DE49CE48F5A7B407A42790FF8AF55AE3D
:1010200054AD53AC521209D6A804A905AA06AB07C1
:10103000AE58AF59E4FCFD12094BE47B0CFAF9F809
:101040001209D6C374FF9FFF74FF9EFEE49DFDE46A
:101050009CFC7808120A68E55745566018855A8B3B
:101060008F8DD28E308FFDC28FC28EE5571557708F
:0510700002155680E2AC
:011075002258
:080DF9008F338E328D318C30F6
:100E0100E4F591E5358534F0120A7B0E3000010ED0
:100E11003500040E3D00100E4500200E4D00400E21
:100E21005500800E5D01000E65020000000E6B533F
:100E3100C98F803653C98F43C910802E53C98F4340
:100E4100C920802653C98F43C930801E53C98F439F
:100E5100C940801653C98F43C950800E53C98F436F
:100E6100C960800653C98F43C970C2C843C9804352
:100E7100C9047B407A42790F7800AF33AE32AD318D
:100E8100AC301209D6AB3BAA3AA939A83812094BA2
:100E9100C006C007AE34AF35AB07AA06E4F9F8D0F7
:100EA10007D0061209D6C3E49FFFE49E74019DE4B6
:100EB1009CE48F3C7B407A42790FF8AF33AE32AD80
:100EC10031AC301209D6AB3BAA3AA939A83812097C
:100ED1004BC006C007AE34AF35AB07AA06E4F9F83C
:100EE100D007D0061209D6C3E49FFFE49EFE740129
:100EF1009DFDE49CFC7808120A68E53745366018C8
:100F0100853CCC8FCDD2CA30CFFDC2CFC2CAE53726
:080F110015377002153680E26D
:010F190022B5
:080CA6008F408E3F8D3E8C3D16
:100CAE00E4F591E54124FE602124FE602524FC60DC
:100CBE002924F8602D24F0603124E0603524C060D2
:100CCE0039247F703B53C4F8803653C4F843C401B3
:100CDE00802E53C4F843C402802653C4F843C40381
:100CEE00801E53C4F843C404801653C4F843C4058D
:100CFE00800E53C4F843C406800653C4F843C40799
:100D0E007B407A42790F7800AF40AE3FAD3EAC3DAE
:100D1E001209D6AB47AA46A945A84412094BC007EB
:100D2E00AF41AB07E4FAF9F8D0071209D6C3E49F36
:100D3E00FFE49E74019DE49CE48F487B407A4279E7
:100D4E000FF8AF40AE3FAD3EAC3D1209D6AB47AA51
:100D5E0046A945A84412094BC007AF41AB07E4FAB8
:100D6E00F9F8D0071209D6C3E49FFFE49EFE740182
:100D7E009DFDE49CFC7808120A68E5434542606AD2
:100D8E00A2AF9200C2AF75C7AA75C755E4F591A27E
:100D9E000092AF53C4EF8548C58FC6A2AF9200C272
:100DAE00AF75C7AA75C755F591A20092AF43C40897
:100DBE00E5C430E4FBA2AF9200C2AF75C7AA75C7F7
:100DCE0055E4F591A20092AF53C4EFA2AF9200C2C8
:100DDE00AF75C7AA75C755F591A20092AF53C4F768
:0A0DEE00E5431543700215428090A2
:010DF80022D8
:10116000EF14600D14600D14600E2403700DD2A9ED
:0C11700022D2AB22439B8022439C02222F
:10108200020AA8E493A3F8E493A34003F68001F2D2
:1010920008DFF48029E493A3F85407240CC8C3336F
:1010A200C4540F4420C8834004F456800146F6DF3E
:1010B200E4800B010204081020408090117CE47E41
:1010C200019360BCA3FF543F30E509541FFEE49333
:1010D200A360010ECF54C025E060A840B8E493A3FA
:1010E200FAE493A3F8E493A3C8C582C8CAC583CA25
:1010F200F0A3C8C582C8CAC583CADFE9DEE780BEDD
:01118D000061
:10080000E709F608DFFA8046E709F208DFFA803EDA
:1008100088828C83E709F0A3DFFA8032E309F608C7
:10082000DFFA8078E309F208DFFA807088828C832F
:10083000E309F0A3DFFA806489828A83E0A3F608E3
:10084000DFFA805889828A83E0A3F208DFFA804CBD
:1008500080D280FA80C680D4806980F28033801094
:1008600080A680EA809A80A880DA80E280CA8033FD
:1008700089828A83ECFAE493A3C8C582C8CCC58375
:10088000CCF0A3C8C582C8CCC583CCDFE9DEE78045
:100890000D89828A83E493A3F608DFF9ECFAA9F0C4
:1008A000EDFB2289828A83ECFAE0A3C8C582C8CC1A
:1008B000C583CCF0A3C8C582C8CCC583CCDFEADE33
:1008C000E880DB89828A83E493A3F208DFF980CC95
:1008D00088F0EF60010E4E60C388F0ED2402B4048E
:1008E0000050B9F582EB2402B4040050AF23234535
:0608F00082239008507302
:1008F600BC000BBE0029EF8DF084FFADF022E4CCE6
:10090600F875F008EF2FFFEE33FEEC33FCEE9DECAE
:10091600984005FCEE9DFE0FD5F0E9E4CEFD22EDF4
:10092600F8F5F0EE8420D21CFEADF075F008EF2F3E
:10093600FFED33FD4007985006D5F0F222C398FD2F
:050946000FD5F0EA22CC
:10094B00E88FF0A4CC8BF0A42CFCE98EF0A42CFC4B
:10095B008AF0EDA42CFCEA8EF0A4CDA8F08BF0A4C9
:10096B002DCC3825F0FDE98FF0A42CCD35F0FCEB28
:10097B008EF0A4FEA9F0EB8FF0A4CFC5F02ECD39ED
:0F098B00FEE43CFCEAA42DCE35F0FDE43CFC225A
:10099A0075F008758200EF2FFFEE33FECD33CDCC14
:1009AA0033CCC58233C5829BED9AEC99E582984097
:1009BA000CF582EE9BFEED9AFDEC99FC0FD5F0D674
:1009CA00E4CEFBE4CDFAE4CCF9A88222B800C1B99E
:1009DA000059BA002DEC8BF084CFCECDFCE5F0CBDC
:1009EA00F97818EF2FFFEE33FEED33FDEC33FCEB15
:1009FA0033FB10D703994004EB99FB0FD8E5E4F9D0
:100A0A00FA227818EF2FFFEE33FEED33FDEC33FCBC
:100A1A00C933C910D7059BE99A4007EC9BFCE99AB0
:100A2A00F90FD8E0E4C9FAE4CCFB2275F010EF2FF5
:100A3A00FFEE33FEED33FDCC33CCC833C810D707F5
:100A4A009BEC9AE899400AED9BFDEC9AFCE899F830
:0E0A5A000FD5F0DAE4CDFBE4CCFAE4C8F922C3
:100A6800E8600FECC313FCED13FDEE13FEEF13FF6C
:030A7800D8F12290
:100A7B00D083D082F8E4937012740193700DA3A30A
:100A8B0093F8740193F5828883E473740293B5F041
:0D0A9B00067403936860E9A3A3A3A380D8A9
:00000001FF
